{
  "_format": "hh-sol-artifact-1",
  "contractName": "DinoRewardContract",
  "sourceName": "contracts/DinoRewardContract.sol",
  "abi": [
    {
      "inputs": [],
      "stateMutability": "nonpayable",
      "type": "constructor"
    },
    {
      "anonymous": false,
      "inputs": [
        {
          "indexed": true,
          "internalType": "uint256",
          "name": "fid",
          "type": "uint256"
        },
        {
          "indexed": true,
          "internalType": "address",
          "name": "recipient",
          "type": "address"
        },
        {
          "indexed": false,
          "internalType": "uint256",
          "name": "amount",
          "type": "uint256"
        },
        {
          "indexed": false,
          "internalType": "uint256",
          "name": "timestamp",
          "type": "uint256"
        }
      ],
      "name": "RewardClaimed",
      "type": "event"
    },
    {
      "stateMutability": "payable",
      "type": "fallback"
    },
    {
      "inputs": [],
      "name": "CLAIM_COOLDOWN",
      "outputs": [
        {
          "internalType": "uint256",
          "name": "",
          "type": "uint256"
        }
      ],
      "stateMutability": "view",
      "type": "function"
    },
    {
      "inputs": [],
      "name": "MIN_SCORE_FOR_REWARD",
      "outputs": [
        {
          "internalType": "uint256",
          "name": "",
          "type": "uint256"
        }
      ],
      "stateMutability": "view",
      "type": "function"
    },
    {
      "inputs": [],
      "name": "REWARD_AMOUNT",
      "outputs": [
        {
          "internalType": "uint256",
          "name": "",
          "type": "uint256"
        }
      ],
      "stateMutability": "view",
      "type": "function"
    },
    {
      "inputs": [
        {
          "internalType": "uint256",
          "name": "_fid",
          "type": "uint256"
        }
      ],
      "name": "canUserClaim",
      "outputs": [
        {
          "internalType": "bool",
          "name": "",
          "type": "bool"
        }
      ],
      "stateMutability": "view",
      "type": "function"
    },
    {
      "inputs": [
        {
          "internalType": "uint256",
          "name": "_fid",
          "type": "uint256"
        },
        {
          "internalType": "uint256",
          "name": "_score",
          "type": "uint256"
        }
      ],
      "name": "claimReward",
      "outputs": [],
      "stateMutability": "nonpayable",
      "type": "function"
    },
    {
      "inputs": [],
      "name": "deposit",
      "outputs": [],
      "stateMutability": "payable",
      "type": "function"
    },
    {
      "inputs": [
        {
          "internalType": "uint256",
          "name": "",
          "type": "uint256"
        }
      ],
      "name": "lastClaimTimestampByFid",
      "outputs": [
        {
          "internalType": "uint256",
          "name": "",
          "type": "uint256"
        }
      ],
      "stateMutability": "view",
      "type": "function"
    },
    {
      "inputs": [],
      "name": "owner",
      "outputs": [
        {
          "internalType": "address",
          "name": "",
          "type": "address"
        }
      ],
      "stateMutability": "view",
      "type": "function"
    },
    {
      "inputs": [
        {
          "internalType": "uint256",
          "name": "_amount",
          "type": "uint256"
        }
      ],
      "name": "withdrawFunds",
      "outputs": [],
      "stateMutability": "nonpayable",
      "type": "function"
    },
    {
      "stateMutability": "payable",
      "type": "receive"
    }
  ],
  "bytecode": "0x608060405234801561001057600080fd5b50336000806101000a81548173ffffffffffffffffffffffffffffffffffffffff021916908373ffffffffffffffffffffffffffffffffffffffff160217905550610bdd806100606000396000f3fe60806040526004361061008a5760003560e01c80638da5cb5b116100595780638da5cb5b1461014d578063a3249dcc14610178578063cf849442146101b5578063d0e30db0146101e0578063eec6d613146101ea57610091565b8063155dd5ee146100935780633027f6d7146100bc57806337c909ec146100f957806386bb8f371461012457610091565b3661009157005b005b34801561009f57600080fd5b506100ba60048036038101906100b5919061062f565b610215565b005b3480156100c857600080fd5b506100e360048036038101906100de919061062f565b610350565b6040516100f09190610677565b60405180910390f35b34801561010557600080fd5b5061010e61037d565b60405161011b91906106a1565b60405180910390f35b34801561013057600080fd5b5061014b600480360381019061014691906106bc565b610383565b005b34801561015957600080fd5b506101626105a5565b60405161016f919061073d565b60405180910390f35b34801561018457600080fd5b5061019f600480360381019061019a919061062f565b6105c9565b6040516101ac91906106a1565b60405180910390f35b3480156101c157600080fd5b506101ca6105e1565b6040516101d791906106a1565b60405180910390f35b6101e86105ed565b005b3480156101f657600080fd5b506101ff6105ef565b60405161020c91906106a1565b60405180910390f35b60008054906101000a900473ffffffffffffffffffffffffffffffffffffffff1673ffffffffffffffffffffffffffffffffffffffff163373ffffffffffffffffffffffffffffffffffffffff16146102a3576040517f08c379a000000000000000000000000000000000000000000000000000000000815260040161029a906107db565b60405180910390fd5b804710156102e6576040517f08c379a00000000000000000000000000000000000000000000000000000000081526004016102dd9061086d565b60405180910390fd5b60008054906101000a900473ffffffffffffffffffffffffffffffffffffffff1673ffffffffffffffffffffffffffffffffffffffff166108fc829081150290604051600060405180830381858888f1935050505015801561034c573d6000803e3d6000fd5b5050565b6000613840600160008481526020019081526020016000205461037391906108bc565b4210159050919050565b61384081565b60648110156103c7576040517f08c379a00000000000000000000000000000000000000000000000000000000081526004016103be90610962565b60405180910390fd5b600060016000848152602001908152602001600020549050613840816103ed91906108bc565b42101561042f576040517f08c379a0000000000000000000000000000000000000000000000000000000008152600401610426906109f4565b60405180910390fd5b67016345785d8a000047101561047a576040517f08c379a000000000000000000000000000000000000000000000000000000000815260040161047190610a86565b60405180910390fd5b42600160008581526020019081526020016000208190555060003373ffffffffffffffffffffffffffffffffffffffff1667016345785d8a00006040516104c090610ad7565b60006040518083038185875af1925050503d80600081146104fd576040519150601f19603f3d011682016040523d82523d6000602084013e610502565b606091505b5050905080610546576040517f08c379a000000000000000000000000000000000000000000000000000000000815260040161053d90610b5e565b60405180910390fd5b3373ffffffffffffffffffffffffffffffffffffffff16847ffc6ecd966b430510beae9124efe7dd517ed5286d7ed0ae258f8556c7a9765a4467016345785d8a000042604051610597929190610b7e565b60405180910390a350505050565b60008054906101000a900473ffffffffffffffffffffffffffffffffffffffff1681565b60016020528060005260406000206000915090505481565b67016345785d8a000081565b565b606481565b600080fd5b6000819050919050565b61060c816105f9565b811461061757600080fd5b50565b60008135905061062981610603565b92915050565b600060208284031215610645576106446105f4565b5b60006106538482850161061a565b91505092915050565b60008115159050919050565b6106718161065c565b82525050565b600060208201905061068c6000830184610668565b92915050565b61069b816105f9565b82525050565b60006020820190506106b66000830184610692565b92915050565b600080604083850312156106d3576106d26105f4565b5b60006106e18582860161061a565b92505060206106f28582860161061a565b9150509250929050565b600073ffffffffffffffffffffffffffffffffffffffff82169050919050565b6000610727826106fc565b9050919050565b6107378161071c565b82525050565b6000602082019050610752600083018461072e565b92915050565b600082825260208201905092915050565b7f44696e6f5265776172643a204f6e6c79206f776e65722063616e20776974686460008201527f7261772e00000000000000000000000000000000000000000000000000000000602082015250565b60006107c5602483610758565b91506107d082610769565b604082019050919050565b600060208201905081810360008301526107f4816107b8565b9050919050565b7f44696e6f5265776172643a20496e73756666696369656e742062616c616e636560008201527f2e00000000000000000000000000000000000000000000000000000000000000602082015250565b6000610857602183610758565b9150610862826107fb565b604082019050919050565b600060208201905081810360008301526108868161084a565b9050919050565b7f4e487b7100000000000000000000000000000000000000000000000000000000600052601160045260246000fd5b60006108c7826105f9565b91506108d2836105f9565b92508282019050808211156108ea576108e961088d565b5b92915050565b7f44696e6f5265776172643a2053636f7265206e6f74206869676820656e6f756760008201527f682e000000000000000000000000000000000000000000000000000000000000602082015250565b600061094c602283610758565b9150610957826108f0565b604082019050919050565b6000602082019050818103600083015261097b8161093f565b9050919050565b7f44696e6f5265776172643a20436c61696d20636f6f6c646f776e206e6f74207960008201527f6574206f7665722e000000000000000000000000000000000000000000000000602082015250565b60006109de602883610758565b91506109e982610982565b604082019050919050565b60006020820190508181036000830152610a0d816109d1565b9050919050565b7f44696e6f5265776172643a20436f6e7472616374206f7574206f662066756e6460008201527f7320666f7220726577617264732e000000000000000000000000000000000000602082015250565b6000610a70602e83610758565b9150610a7b82610a14565b604082019050919050565b60006020820190508181036000830152610a9f81610a63565b9050919050565b600081905092915050565b50565b6000610ac1600083610aa6565b9150610acc82610ab1565b600082019050919050565b6000610ae282610ab4565b9150819050919050565b7f44696e6f5265776172643a204661696c656420746f2073656e64204d4f4e207260008201527f65776172642e0000000000000000000000000000000000000000000000000000602082015250565b6000610b48602683610758565b9150610b5382610aec565b604082019050919050565b60006020820190508181036000830152610b7781610b3b565b9050919050565b6000604082019050610b936000830185610692565b610ba06020830184610692565b939250505056fea264697066735822122083e28f3d2b6b1190c1250364a716fded1b01c555907c95ea596f844bb618fc3164736f6c63430008140033",
  "linkReferences": {},
  "deployedLinkReferences": {}
}